:020000040800F2
:1000000028070020490100088B2B0008092300085D
:10001000892B0008BD070008F53300080000000028
:100020000000000000000000000000007D2F00081C
:10003000BF07000800000000A12E000829300008BA
:100040006301000863010008630100086301000800
:1000500063010008630100086301000863010008F0
:1000600063010008630100086301000863010008E0
:1000700063010008630100086301000863010008D0
:1000800063010008630100086301000863010008C0
:1000900063010008630100086301000863010008B0
:1000A00063010008630100086301000863010008A0
:1000B0008D300008630100089930000863010008D2
:1000C0006301000863010008630100086301000880
:1000D0006301000863010008630100086301000870
:1000E0006301000863010008630100086301000860
:1000F0006301000863010008630100086301000850
:10010000630100086301000863010008630100083F
:10011000630100086301000863010008630100082F
:10012000630100086301000863010008630100081F
:10013000DFF810D000F014FB0048004765370008D6
:10014000AFF3008028070020064880470648004794
:10015000FEE7FEE7FEE7FEE7FEE7FEE7FEE7FEE777
:10016000FEE7FEE78B30000831010008202A04DB9F
:10017000203A21FA02F00021704721FA02F3D04020
:10018000C2F120029140084319467047D2B201E003
:1001900000F8012B491EFBD270470022F6E710B58C
:1001A00013460A4604461946FFF7F0FF204610BDE5
:1001B0002DE9FE4F804681EA0300C00F0C460090F7
:1001C00021F0004123F00045B8EB0200A94105D21F
:1001D0004046214690461C460B46024623F000400E
:1001E000104347D0270DC7F30A00C3F30A5102900A
:1001F000401A019040286BDAC3F3130040F4801BCF
:100200000098924620B10023D2EB030A63EB0B0B5C
:1002100001985946C0F14002504600F0D3F9064615
:100220000D4650465946019A00F0DBF910EB0800E4
:100230006141002487EA115284EAE7731A4340D0EF
:10024000009A62B3019A012A4FEA075215DC001B9B
:1002500061EB02014FF0004202EA0752CDE9004291
:10026000001C41F5801132462B4600F012FA03B013
:10027000BDE8F08F40462146F9E7001B61EB020123
:10028000001C41F5801300185B412018A2F50017EF
:1002900047EB030140EAD570B6196D4111E06D08D6
:1002A0004FEA360645EAC0754FEA0752001B61EB7C
:1002B0000201001C41F5801149084FEA3000001985
:1002C000514132462B4603B0BDE8F04F00F0D2B9A1
:1002D0000098012240000023D0EB020263EBE073A0
:1002E000009821464FEAE074B8EB000061EB04018E
:1002F000E9E783F000435BE781F0004158E72DE92F
:10030000FE4F81EA030404F0004421F00041009410
:100310004FF0000B23F0004350EA01045ED052EA94
:1003200003045BD0C3F30A54C1F30A552C44A4F26E
:10033000F3340194A0FB0254C1F3130141F4801182
:10034000C3F3130343F4801301FB024400FB034E89
:10035000840A970A44EA815447EA8357A4FB076852
:1003600002958D0A05FB07854FEA932C04FB0C547C
:100370002705029D4FEA065847EA1637B5EB0805F0
:100380006EEB070C870E920E47EA811742EA831242
:10039000A7FB0201B6EB0B0164EB00042B0D43EA53
:1003A0000C335E1844EB1C50DA465146E7FB020161
:1003B000C5F313044FEA0B3343EA14534FEA0432F4
:1003C000019C43EA0603A4F10C040294009CCDE9CD
:1003D00000B400F05EF903B0BDE8F08F00200146E4
:1003E000F9E72DE9F04D81EA030404F0004B21F018
:1003F000004514464FF0000A23F0004150EA050280
:1004000020D054EA01021DD0C5F30A570246C5F3B5
:100410001303C1F31300C1F30A5640F4801543F4EB
:100420008013A7EB0608101BD64608F2FD3873EBC5
:10043000050002D308F1010801E092185B41B8F110
:10044000000F03DA00200146BDE8F08D00204FF4D4
:100450008011064684460EE0171B73EB050705D393
:10046000121B63EB050306434CEA010C49084FEAF3
:10047000300092185B4150EA0107EDD152EA0300C7
:1004800012D082EA040083EA0501084305D0101B5C
:10049000AB4106D20122002306E000224FF00043C8
:1004A00002E06FF0010253101AEB06004CEB08510A
:1004B00010EB0A0041EB0B01BDE8F04D00F0DAB89B
:1004C00070B521F0004303430CD0C1F30A5500245A
:1004D000D5EB040564EB0403D617AD1AB34102DB78
:1004E0000020014670BD201841EB025170BD0EB5D1
:1004F00040F2334102910021CDE900110A460B463A
:1005000000F0C7F803B000BDC1F30A5210B5C1F343
:10051000130140F2FF3341F480119A4201DA0020C6
:1005200010BD40F233439A42A2F2334203DC5242FE
:10053000FFF71CFE10BD904010BD00F0004230F0EF
:1005400000400AD0C10D01F56071C0F3160042EA07
:100550000151C2084007114370470020014670470F
:1005600001F0004330B421F0004150EA010206D00E
:100570000A0DA2F56072C1F31301002A02DC30BC3F
:1005800000207047440F44EAC104C100E01830BCA9
:1005900000EBC25000F037B830B50B4601460020E2
:1005A0002022012409E021FA02F59D4205D303FA35
:1005B00002F5491B04FA02F52844151EA2F10102B6
:1005C000F1DC30BD202A04DB203A00FA02F10020E1
:1005D00070479140C2F1200320FA03F31943904081
:1005E0007047202A06DBCB17203A41FA02F043EA93
:1005F000E07306E041FA02F3D040C2F120029140DC
:100600000843194670470029A8BF7047401C49009D
:1006100008BF20F00100704710B4B0FA80FC00FA67
:100620000CF050EA010404BF10BC704749B1CCF192
:10063000200421FA04F411FA0CF118BF012121431E
:100640000843A3EB0C01CB1D4FEA00614FEA1020D9
:1006500042BF002010BC704700EBC350104400297B
:10066000A4BF10BC7047401C490008BF20F0010027
:1006700010BC704710B5141E73F1000408DA401C5A
:1006800041F1000192185B411A4301D120F00100B1
:1006900010BD2DE9F04D92469B4611B1B1FA81F2A1
:1006A00002E0B0FA80F220329046FFF78BFF04465A
:1006B0000F4640EA0A0041EA0B0153465A460843F6
:1006C00013D0114653EA010019D0C8F14002504638
:1006D000FFF74CFD05460E46504659464246FFF789
:1006E00071FF084305D0012004E020463946BDE8EB
:1006F000F08D0020054346EAE0762C4337430A9804
:100700006305E40AA0EB08000022FD0A44EA47540E
:100710000A3002D500200146E9E7010510196941B8
:10072000DDE9084500196941BDE8F04DA2E7000088
:1007300030B5041E71F1000404DB4FF00044404268
:1007400064EB0101141E73F1000405DB1C464FF03D
:100750000043524263EB0403994208BF904230BD0C
:10076000064C074D06E0E06840F0010394E80700FE
:1007700098471034AC42F6D3FFF7DEFC6C3B000820
:100780008C3B000810B50C4C60B1012809D1AA219E
:10079000082002F0FBF90A21084602F0F7F90020D0
:1007A000A06010BD4621082002F0F0F96E210A2059
:1007B00002F0ECF90120F3E704000020FEE77047A7
:1007C000024610B5002001210BE000BF02EBD273FE
:1007D00023F00104121B01FB020001EB810149001F
:1007E0005A10002AF2D110BD72B6FEE770B5044669
:1007F00000F010F90546601C02D00448007804445B
:1008000000F008F9401BA042FAD370BD540000204C
:100810002DE9F84FDFF8C891002409F1040A0AF124
:10082000040B23460F270BF1040ED1E00125A54050
:1008300006EA0502AA4276D1DFF8A8C14E68A6EB07
:100840000C0866452BD00DDC032E34D005DC36B306
:10085000012E19D0022E2FD11BE0112E16D0122EF0
:100860002AD119E0B8F5881F19D006DCB8F5803F09
:1008700015D0B8F5801F1FD111E0B8F5001F0ED0BC
:10088000B8F5041F18D10AE0CB6815E0CB681B1D32
:1008900012E0CB6808330FE0CB680C330CE08B68B8
:1008A0002BB1012B4FF0080303D0456104E0042372
:1008B00002E0056100E00023FF2A01D8064601E0BE
:1008C00000F104064FEA840501D9A5F12005D6F808
:1008D000008007FA05FC28EA0C0803FA05F548EA47
:1008E0000508C6F800804D68ED0070D53E4DAE6934
:1008F00046F00106AE61AD6924F0030605F001057E
:1009000000953A4D06EB050CDCF80850A607360FAB
:1009100007FA06F825EA0805DFF8D480404503D138
:100920004FF0000825E052E0DFF8C880404502D1D2
:100930004FF001081DE0DFF8C080404502D14FF0C4
:10094000020816E0DFF8B480404502D14FF00308FA
:100950000FE0DFF8AC80404502D14FF0040808E01A
:10096000DFF8A080404502D14FF0050801E04FF0CC
:10097000060808FA06F848EA0508CCF808804D6829
:10098000D9F80060ED034D4601D5164300E09643CB
:100990002E604D68DAF80060AD03554601D5164368
:1009A00000E096432E604D68DBF80060ED025D4686
:1009B00001D5164300E096432E604D68DEF80060D6
:1009C000AD02754601D5164300E096432E60641CC7
:1009D0000A681646E2407FF429AFBDE8F88F0000B0
:1009E000000401400000111000100240000001400E
:1009F00000080140000C01400010014000140140BB
:100A000000180140001C01400AB10161704709044F
:100A1000FBE7000001488068704700005400002098
:100A200070B5040025D094F83D00002520B984F865
:100A30003C50204600F070FA242084F83D002068E5
:100A4000016821F0010101602068016841F4004162
:100A500001602068016821F40041016000F0D6FBCC
:100A60004D4A6168914201D84C4900E04C498842A6
:100A700001D2012070BD4B492368B0FBF1F15E68E3
:100A800026F03F060E435E606368934206D94FF43A
:100A9000967359434FF47A73B1FBF3F12368491C01
:100AA0001E6A26F03F06314319626168914210D8F0
:100AB0004900401EB0FBF1F2521CC2F30B02042AA3
:100AC00001D2042022E0B0FBF1F0401CC0F30B0087
:100AD0001CE0A268F2B301EBC10303EB0116431E55
:100AE000B3FBF6F35B1C43F480431B0549D092B380
:100AF00001EBC10202EB0111401EB0FBF1F0401C02
:100B0000C0F30B0040F4804040F400402168CA6903
:100B10004CF6FF739A431043C861D4E907100143B0
:100B20002068026822F0C00211430160D4E9030189
:100B300001432068826848F2FF339A431143816081
:100B4000D4E9050108432168CA6822F0FF02104376
:100B5000C86001E00EE016E02068016841F0010184
:100B600001602564202084F83D00256384F83E5010
:100B7000002070BD01EB4106431EB3FBF6F35B1C86
:100B8000B3E70120C2E701EB4101401EB0FBF1F0E9
:100B9000401CC0F30B00B7E7A086010080841E0054
:100BA00000093D0040420F002DE9F84F0025DDF817
:100BB0002890984617468A4604460095FFF72AFF74
:100BC000064694F83D0020287AD119230122834952
:100BD0002046009601F09AFC0028F5D194F83C00DC
:100BE00001286DD0012084F83C0020680168C90705
:100BF00003D1016841F0010101602068016821F41E
:100C000000610160222084F83D00102084F83E003D
:100C100025646762A4F82A80608D20857048E062B0
:100C200033464A465146204601F086FB00287DD1D6
:100C3000208DDFF8B081202768B1012814D0022868
:100C4000206801681ED041F480610160206841691C
:100C500080690090B5E02068416981690091016870
:100C600041F400710160ACE02068016821F480610A
:100C7000016072B62068416981690091016841F4A0
:100C800000710AE041F40061016072B620684169B8
:100C900081690091016821F48061016062B690E091
:100CA000032868D801280CD002284B464FF00002D8
:100CB0004146204600960FD001F028FCB0BB10E062
:100CC0008AE032464946204601F09FFC70BB20680E
:100CD0000069616A08706BE001F018FC30BB72B605
:100CE00034E02068016821F48061016072B62068F8
:100CF0000069616A0870606A401C6062208D401E55
:100D00002085608D401E6085374846F2A811006836
:100D1000B0FBF1F0C0EBC00000EB80000090401E83
:100D2000009008D020684069C04300E029E04007F7
:100D30000CD50098F3E744F8305F6773A57320691A
:100D400040F02000206162B625731AE02068016837
:100D500041F40071016020680069616A0870606A8E
:100D6000401C6062218D491E2185618D491E61856F
:100D700062B621681AE032464946204601F045FC39
:100D800010B10120BDE8F88F20680069616A087021
:100D9000606A401C6062218D491E2185618D491E5B
:100DA000618521684A69D24352070AD409690170F2
:100DB000606A401C6062208D401E2085608D401E50
:100DC0006085208D00287FF46BAF84F83D7084F837
:100DD0003E5084F83C50D5E70220D3E702001000D3
:100DE0000000FFFF04000100600000202DE9F84F23
:100DF0001F4690468A460446DDF82890FFF70AFE13
:100E0000054694F83D0020287FD11923012240494E
:100E10002046009501F07AFB002876D194F83C003A
:100E2000012872D0012084F83C0020680168C907BD
:100E300003D1016841F0010101602068016821F4DB
:100E400000610160212084F83D00102084F83E00FC
:100E500000262664C4F824806785608D20852D488F
:100E6000E0622B464A465146204601F0DBFA90B933
:100E7000206841698069009036E02A46494620464C
:100E800001F0F6FB50B1206C042804D12068016801
:100E900041F4007101600120BDE8F88F606A2168AB
:100EA00000780861606A401C6062618D491E61853E
:100EB000218D491E89B2218522685369DB435B0776
:100EC0000BD451B100781061606A401C6062608D83
:100ED000401E6085208D401E20852A4649462046BA
:100EE00001F0EEFA0028CED1208D0028C5D154F8AB
:100EF0003D0B016841F400710160202004F81E09D7
:100F0000E67766770020C7E7FFE70220C4E7000026
:100F1000020010000000FFFF30B585B000210091F5
:100F20000191029103911E4D03681E4C1221032270
:100F30001D48AB4216D1A36943F00803A361A3691E
:100F4000039203F008030493C023CDE900316946FE
:100F5000FFF75EFCE06940F40010E061E06900F436
:100F6000001019E0114DAB4217D1A36943F00803FB
:100F7000A361A369039203F0080304934FF4406351
:100F8000CDE900316946FFF743FCE06940F4800099
:100F9000E061E06900F48000049005B030BD00001D
:100FA0000054004000100240000C01400058004076
:100FB0000248816802781144816070475400002023
:100FC000074810B5016841F010010160032000F0EE
:100FD00075F80F2000F006F800F024F8002010BD8E
:100FE0000020024070B50D4D04464FF47A71287808
:100FF000B1FBF0F00A490968B1FBF0F000F06FFCBA
:1010000048B9102C07D200222146501E00F036F8B5
:1010100000206C6070BD012070BD000054000020F5
:10102000600000200C4808B5816941F00101816130
:10103000816901F001010091C16941F08051C161F4
:10104000C06900F0805000900448416821F0E061E0
:1010500041F00071416008BD0010024000000140F5
:10106000002809DB00F01F020121914040098000A7
:1010700000F1E020C0F8001170470000F0B40E4B02
:101080001B680C46C3F30223C3F10705042D00D9E6
:101090000425191D072901D2002300E0DB1E0126CB
:1010A00006FA05F1491E214099409E40761E1640E1
:1010B0003143F0BC02F0B4B90CED00E0064900F099
:1010C000070208684FF6FF03184040EA0220034A6F
:1010D00010430860704700000CED00E00000FA05C6
:1010E0002DE9F0470F46050061D0434E306800F00F
:1010F0000700B84209D2306820F00700384330605A
:10110000306800F00700B84251D128683B4C810795
:1011100012D5400703D5606840F4E060606028782D
:10112000000703D5606840F4605060606068A9689B
:1011300020F0F000084360602878C00728D0686875
:10114000012810D02168022810D0890700292EDA42
:10115000616821F0030101436160FFF75BFC804699
:1011600041F288390DE021688903EFE78901EDE755
:10117000FFF750FCA0EB0801494502D90320BDE868
:10118000F0876068696800F00C00B0EB810FEFD168
:10119000306800F00700B8420BD9306820F0070033
:1011A00038433060306800F00700B84201D00120B9
:1011B000E5E72878400705D56068E96820F4E06035
:1011C000084360602878000706D56068296920F424
:1011D000605040EAC100606000F038F86168084A79
:1011E000C1F30311515CC840064908600648006815
:1011F000FFF7F8FE0020C2E7002002400010024086
:10120000543B0008600000205800002004480549B5
:1012100000684968044AC1F30221515CC840704724
:101220006000002000100240643B000804480549AB
:1012300000684968044AC1F3C221515CC840704744
:101240006000002000100240643B000812A185B03D
:101250000FC98DE80F0014A0144A0068049051686B
:10126000134801F00C03042B10D0082B0ED1C1F34E
:101270008343C9031DF803000AD5516804AAC1F3CA
:101280004041515C0A4A5043B0FBF1F005B0704751
:1012900008494843FAE70000020304050607080965
:1012A0000A0B0C0D0E0F101001020000001002407E
:1012B00000127A0000093D002DE9F84F040070D0BB
:1012C0002078C04DC00749D06868C0F3810001286C
:1012D00007D06868C0F38100022809D16868C0039C
:1012E00006D52868800339D560680028E7D035E046
:1012F0006068B0F5803F0BD010B1B0F5A02F11D0D1
:10130000286820F480302860286820F4802002E0DB
:10131000286840F480302860606890B1FFF77AFB5D
:1013200006460AE0286840F480202860F0E700BF05
:10133000FFF770FB801B642873D828688003F7D5FB
:101340000CE0FFF767FB064605E000BFFFF762FB16
:10135000801B6428F0D828688003F7D420789A4E40
:1013600080074FF001094FF0000839D5686810F088
:101370000C0F07D06868C0F38100022809D16868A3
:10138000C00306D42868800714D52069012808D135
:1013900010E02069B0B1C6F80090FFF73BFB0746AC
:1013A00005E00AE1FFF736FBC01B0228C4D8286815
:1013B0008007F7D52868616920F0F80040EAC1008D
:1013C00028600DE0C6F80080FFF724FB074604E024
:1013D000FFF720FBC01B022823D828688007F7D41A
:1013E000207800072CD57948A169D9B1C0F80090C0
:1013F000FFF710FB074604E0FFF70CFBC01B0228B9
:101400000FD8686A8007F7D571484FF4FA51006821
:10141000B0FBF1F0009000BF0098411E0091FAD29D
:101420000EE080E0C0F80080FFF7F4FA074604E021
:10143000FFF7F0FAC01B022875D8686A8007F7D456
:101440002078400760D5E8690027C00008D4E86923
:1014500040F08050E861E869012700F0805000907A
:101460005C480168C90513D40168834641F4807162
:101470000160FFF7CFFA824606E000BFFFF7CAFA25
:10148000A0EB0A0064284ED8DBF80000C005F5D5B3
:10149000E06801280AD008B1052813D0286A20F096
:1014A00001002862286A20F0040002E0286A40F067
:1014B00001002862E06841F2883B98B1FFF7AAFA80
:1014C00082460BE0286A40F004002862EEE700BF85
:1014D000FFF7A0FAA0EB0A0159455AD8286A8007FD
:1014E000F6D50CE0FFF796FA824605E0FFF792FA90
:1014F000A0EB0A0159454CD8286A8007F6D41FB1E1
:10150000E86920F08050E861E06988B36968C1F358
:101510008101022944D00228C6F8608004D0FFF778
:1015200079FA044638E034E0FFF774FA074604E03D
:10153000FFF770FAC01B02282BD828688001F7D467
:10154000206AB0F5803F05D16868A16820F40030BA
:1015500008436860D4E908010843696821F47411FC
:1015600008436860C6F86090FFF754FA044606E046
:1015700025E000BFFFF74EFA001B022809D82868B3
:101580008001F7D51BE000BFFFF744FA001B0228DB
:1015900002D90320BDE8F88F28688001F4D40EE05A
:1015A0000128F7D06868226A00F48031914204D1A2
:1015B000616A00F47010884201D00120EAE700203F
:1015C000E8E700000010024000004242800442426E
:1015D000600000200070004070B5040009D0606A0F
:1015E000002540B125616561A56294F8510040B1C4
:1015F0000CE0012070BD6068B0F5827FF4D0E56139
:10160000F2E784F85050204600F040F8022084F8B9
:1016100051002068016821F040010160A088218903
:1016200000F4827001F404410843A18901F40061CF
:101630000843217C01F002010843217D01F00101F2
:101640000843218B01F400710843217F01F0380128
:10165000084394F8201001F080010843218D01F423
:101660000051084321680860A069042101EA104084
:10167000216848602068C16921F40061C161656525
:10168000012084F85100002070BD000030B585B005
:101690000024009401940294039400681449884241
:1016A00023D11448816941F480518161816901F439
:1016B00080510491816941F00401816180690E4D7E
:1016C00000F004000490A02000900220019003206C
:1016D000039069462846FFF79BF84020CDE90004B7
:1016E000694628460294FFF793F805B030BD000024
:1016F0000030014000100240000801402DE9F84F81
:10170000044690F8500000270A9E1D4692468B46DC
:101710004FF0010901280ED0012084F85000FFF796
:1017200079F9804694F85100616801280CD0B1F530
:10173000827F07D102E00220BDE8F88FA16809B9D5
:10174000042801D00227C2E0BBF1000F27D0BAF174
:10175000000F24D01DB394F85100042802D00520B6
:1017600084F8510000206065C4F838A0E587A5879B
:10177000C4F830B0E586A5862064606420680168FE
:10178000490603D4016841F040010160E068B0F50A
:10179000006F606805D0E8B3012D46D07FE00127D7
:1017A00095E008B1012D39D1206B21680088C8600F
:1017B000206B801C2063E08E401EE0862EE02068B7
:1017C000816889070FD5E18E69B1B9F1010F0AD19E
:1017D000216B0988C160206B801C2063E08E401E55
:1017E000E0864FF0000920688168C9070CD0E18FBE
:1017F00051B1C068A16B0880A06B801CA063E08F12
:10180000401EE0874FF00109FFF704F9A0EB080044
:10181000B04200E009E001D3701C50D1E08E0028F6
:10182000CDD1E08F0028CAD13FE0206B216800783D
:101830000873206B401C2063E08E401EE0862EE083
:101840002068816889070FD5E18E69B1B9F1010F70
:101850000AD1216B09780173206B401C2063E08E54
:10186000401EE0864FF0000920688168C9070CD04F
:10187000E18F51B1C068A16B0870A06B401CA063E0
:10188000E08F401EE0874FF00109FFF7C3F8A0EB9F
:101890000800B04202D3701C01D010E07EB1E08E8F
:1018A0000028CDD1E08F0028CAD1424631462046DB
:1018B00001F0F7FA28B101272020606507E003272F
:1018C00005E0A06818B92068C16880680090012010
:1018D00084F85100002084F8500038462CE710B5F9
:1018E000401EB0F1807F01D3012010BD4FF0E024F5
:1018F00060610F21601701F093FD0020A0610720B7
:101900002061002010BD7047704710B590F83C2052
:10191000012A22D0012280F83C20CA688C6822F477
:10192000407222434C6822F4806222430C6822F405
:10193000006222430C6922F4805222434C6922F453
:1019400000522243C969002322F480420A430168FD
:101950004A6480F83C30002010BD022010BD000019
:1019600070B590F83C20012A2CD0012480F83C402E
:10197000022280F83D2003685A689D6822F07006B4
:101980000A6832435A60104B02689A420ED00F4BDD
:101990009A420BD0B2F1804F08D00D4B9A4205D03D
:1019A0000C4B9A4202D00C4B9A4204D1496825F064
:1019B00080031943916080F83D40002180F83C107D
:1019C000084670BD022070BD002C0140003401406B
:1019D0000004004000080040000C004010B5040066
:1019E00003D094F83D0010B107E0012010BD0020A5
:1019F00084F83C00204600F01FF8022084F83D00E7
:101A0000211D206801F04EFB012084F8460084F877
:101A10003E0084F83F0084F8400084F8410084F8D8
:101A2000420084F8430084F8440084F8450084F8B8
:101A30003D00002010BD000008B50068B0F1804FE7
:101A400012D10A48C16941F00101C161C069002297
:101A500000F00100009001211C20FFF70FFBBDE802
:101A600008401C20FFF7FCBA08BD0000001002402F
:101A700090F83D10012901D001207047022180F823
:101A80003D100168CA6842F00102CA6000680E4950
:101A900088420ED00D4988420BD0B0F1804F08D05B
:101AA0000B49884205D00B49884202D00A49884236
:101AB00004D1816801F00701062903D0016841F0D3
:101AC0000101016000207047002C014000340140FA
:101AD0000004004000080040000C004070B50446BF
:101AE00090F83C00012817D0012584F83C500220D2
:101AF00084F83D002068826822F0770222F47F4259
:101B000082600868502830D00DDC20284DD005DCDC
:101B100098B310283BD148E0022070BD302844D053
:101B2000402834D139E0602828D0702806D0B0F59C
:101B3000805F2CD0B0F5005F29D10AE0CB68D1E9F5
:101B40000121206801F001FB2068816841F07701E4
:101B500009E0CB68D1E90121206801F0F6FA20689C
:101B6000816841F48041816011E0CA684968206859
:101B700001F0C0FB5021206807E016E0CA68496800
:101B8000206801F0C8FB6021206801F0E8FA84F8C1
:101B90003D50002084F83C0070BDCA684968206848
:101BA00001F0A8FB40212068EFE7226801461046BB
:101BB000EBE72DE9F0410D46040003D094F83D0019
:101BC00018B108E00120BDE8F081002084F83C0055
:101BD000204600F041F8022084F83D00206881682A
:101BE00044F2070291438160211D206801F05AFAF6
:101BF000226890689169166A2B68AF69034340F2C6
:101C00000330814341EA0721A868EF6908434FF692
:101C1000FC418843E96840EA0720014328692F6AAC
:101C2000000140EA0730084369686D6926F0220622
:101C300046EA0515294393602268906154F8460BE3
:101C40000162012004F81F09E0752076E076207714
:101C5000A0750020B7E7000000B585B00021009115
:101C600001910291039100681549884226D11548D7
:101C7000C16941F00401C161C16901F0040104912D
:101C8000816941F0200181618069694600F020008E
:101C900004904FF4405000900B48FEF7B9FD0B48FC
:101CA000416841F0E06141F48051416000221146F9
:101CB0001E20FFF7E3F91E20FFF7D2F905B000BDA3
:101CC00000080040001002400014014000000140E4
:101CD00070B590F83E60044690F83F5090F842305E
:101CE00090F84320022021B104290ED0012E1BD1EF
:101CF00014E0012E18D1012B16D184F83E0084F88F
:101D0000420001220021206820E0012D0CD1012A8F
:101D10000AD184F83F0084F8430014E0012D03D178
:101D2000012B01D1012A01D0012070BD84F83E00B1
:101D300084F83F0084F8420084F843000122002127
:101D4000206801F0F5F901220421206801F0F0F982
:101D50002068016841F001010160002070BD7047FA
:101D600070B50446006801694FF00005C943890752
:101D700015D4C168C943890711D4E91E0161012046
:101D80002077206880698007204602D0FFF7E7FFB0
:101D900004E000F003F9204600F0C0F92577206840
:101DA0000169C943490717D4C168C943490713D416
:101DB0006FF004010161022020772068806910F42F
:101DC000407F204602D0FFF7CAFF04E000F0E6F8AB
:101DD000204600F0A3F9257720680169C943090767
:101DE00016D4C168C943090712D46FF00801016114
:101DF000042020772068C0698007204602D0FFF7C2
:101E0000AEFF04E000F0CAF8204600F087F925771D
:101E100020680169C943C90617D4C168C943C90606
:101E200013D46FF010010161082020772068C06989
:101E300010F4407F204602D0FFF791FF04E000F04D
:101E4000ADF8204600F06AF9257720680169C9439A
:101E5000C90708D1C168C943C90704D1891E0161F6
:101E6000204600F0B7F920680169C943090609D482
:101E7000C168C943090605D46FF08001016120469D
:101E8000FFF741FD20680169C943490609D4C168CB
:101E9000C943490605D46FF040010161204600F0B6
:101EA000C9F920680169C94389060BD4C168C943CF
:101EB000890607D46FF0200101612046BDE870401B
:101EC000FFF722BD70BD000010B586B00021009163
:101ED000019102910391294B026829490220294C62
:101EE0009A4218D18A6942F040028A618969039056
:101EF00001F0400104914FF4D441CDE9001069464E
:101F00002148FEF785FC606820F0C00040F0E060EA
:101F100040F0C0001AE01D4B9A421AD18A6942F083
:101F200010028A618969039001F0100104914FF455
:101F30007071CDE9001069461548FEF769FC6068CC
:101F400020F4406040F0E06040F44060606006B023
:101F500010BD104B9A42FAD18A6942F004028A619C
:101F60008969039001F0040104910F21CDE900106B
:101F700069460948FEF74CFCE9E70000002C0140E7
:101F80000010024000000140001801400004004021
:101F900000100140000C004000080140704770B57F
:101FA000044690F83C000D4601280AD0012084F830
:101FB0003C0042B1042A18D0082A2AD00C2A4DD15C
:101FC00039E0022070BD206801F0D2F820688169F4
:101FD00041F0080181612068816921F0040181617B
:101FE000206881692A69114311E0206801F0F0F846
:101FF0002068816941F4006181612068816921F470
:1020000080618161206881692A6941EA02218161D8
:1020100024E0206801F012F92068C16941F008014C
:10202000C1612068C16921F00401C1612068C169F2
:102030002A69114311E0206801F034F92068C16970
:1020400041F40061C1612068C16921F48061C1610E
:102050002068C1692A6941EA0221C161002084F82F
:102060003C0070BD10B5040003D094F83D0010B1E1
:1020700007E0012010BD002084F83C00204600F05D
:102080001FF8022084F83D00211D206801F00AF8A5
:10209000012084F8460084F83E0084F83F0084F86C
:1020A000400084F8410084F8420084F8430084F83A
:1020B000440084F8450084F83D00002010BD000075
:1020C00008B5124A01681248914207D1816941F46A
:1020D00000618161806900F4006009E00D4A91426D
:1020E00008D1C16941F00201C161C06900F002007C
:1020F000009008BD084A9142FBD1C16941F0080136
:10210000C161C06900F00800F2E70000002C014046
:102110000010024000040040000C00407047000026
:1021200010B50446022249B104290ED0082913D063
:1021300094F84100012816D0012010BD94F83E000B
:102140000128F9D184F83E200FE094F83F000128DF
:10215000F2D184F83F2008E094F840000128EBD148
:1021600084F8402001E084F841200122206800F03A
:10217000DFFF13492068134A884201D0904203D1FF
:10218000436C43F400434364206888420DD090427E
:102190000BD0B0F1804F08D00B49884205D00B49D5
:1021A000884202D00A49884204D1816801F00701BF
:1021B000062903D0016841F001010160002010BD33
:1021C000002C0140003401400004004000080040A1
:1021D000000C0040144910B5884223D1134C2078DC
:1021E000401CC0B22070012803D900F0B1FD0020CE
:1021F00020706068012815D10D484078732811D1EE
:10220000616A606B00F0E0FEA16AA06B00F0EEFE78
:10221000E16AE06B00F0B4FE216B206CBDE8104079
:1022200000F0C0BE10BD0000C0010020040000206E
:102230006D000020704770B5040004D094F83D0094
:10224000002510B106E0012070BD84F83C50204606
:1022500000F022F8242084F83D002068C16821F4B1
:102260000051C160204601F069F82068016921F43D
:10227000904101612068416921F02A014161206893
:10228000C16841F40051C1602564202084F83D00FC
:1022900084F83E00002070BD30B585B00024009465
:1022A00001940294039400681449884224D114488C
:1022B000816941F480418161816901F48041049127
:1022C000816941F00401816180690E4D00F00400D4
:1022D00004904FF4007000900220019003200390BE
:1022E00069462846FEF794FA2815CDE900046946A8
:1022F00028460294FEF78CFA05B030BD0038014044
:102300000010024000080140FEE701684A69D2431C
:1023100052050FD46FF480624A61002140F8301FEB
:10232000202242738173026942F004020261017348
:1023300001207047002070472DE9F84F0446C06A1D
:102340001E4693460D4621680A6842F480620A6080
:10235000082807D0012805D010F5803F02D0206B57
:10236000112804D12068016841F4807101604FF0A8
:1023700001195B46002249462046009600F0C6F847
:102380004FF4007840B120680068C00501D5C4F85A
:1023900040800320BDE8F88F2069DFF884A0B0F505
:1023A000804F0FD00620216800EAD51747F0F000D3
:1023B000086133465A460AF10601204600F0DAF871
:1023C00058BB03E0E8B240F001001CE02168E8B22D
:1023D000086133465A465146204600F0CBF8E0B932
:1023E0002068416981690091016841F48071016050
:1023F0005B46002249462046009600F087F80028F8
:10240000C1D147F0F1002168086133465A46514670
:10241000204600F0AFF80028BCD00120BAE7000049
:1024200002000100F8B50446C06A1E460D46174674
:10243000082807D0012805D010F5803F02D0206B76
:10244000122804D12068016841F4807101601346AC
:1024500000224FF001112046009600F057F840B1DD
:1024600020680068C00502D54FF400702064032086
:10247000F8BD2069B0F5804F0ED00620216800EA33
:10248000D51040F0F000086133463A460B4920462B
:1024900000F070F878B902E005F0FE0000E0E8B264
:1024A00021680861054933463A46891F204600F0F5
:1024B00061F80028DCD00120F8BD00000800010010
:1024C00070B516460D4604460DE02046FFF71DFF89
:1024D00008B1012070BD681C05D0FEF79BFA801B77
:1024E000A84207D835B120684069C0434007ECD402
:1024F000002070BD002044F8300F20216173A073CC
:10250000216941F0200121612073E2E72DE9F047C4
:102510001E4690460D460446C1F30747DDF820905D
:1025200008E0701C06D0FEF775FAA0EB0900B04277
:102530000FD876B12068012F18D0806925EA0000F5
:102540000004000C14D000214145EAD00020BDE871
:10255000F087002044F8300F20216173A0732169B7
:1025600041F02001216120730120F0E74069E5E797
:102570000121E9E72DE9F0479A4691460E460446C7
:1025800000254FF02008C1F3074725E02068406987
:10259000C043400514D42068016841F40071016013
:1025A00021686FF480604861256384F83D8084F879
:1025B0003E50206C40F00400206484F83C501FE042
:1025C000B9F1FF3F08D0FEF725FAA0EB0A01494513
:1025D0000CD8B9F1000F09D02068012F13D0806901
:1025E00026EA00000004000C0BD0CFE744F8305F6F
:1025F00084F80D80A573206940F0200020612573C8
:102600000120BDE8F0874069EAE72DE9F0410025A7
:1026100090460E460446202717E04069C043C00696
:102620000CD454F8301B6FF01000486144F8105976
:102630006777A577206A2062257717E0FEF7EAF929
:10264000A0EB0800B04208D83EB120684169C943F8
:102650004906E2D40020BDE8F08144F8305F67739A
:10266000A573206940F02000206125730120F2E766
:1026700070B516460D4604460DE02046FFF745FEB0
:1026800008B1012070BD681C05D0FEF7C3F9801B9E
:10269000A84207D835B120684069C0430006ECD491
:1026A000002070BD002044F8300F20216173A0731A
:1026B000216941F0200121612073E2E710B50C4C43
:1026C00058B1012808D1002100F060FAAB210320A5
:1026D00000F05CFA0020E06010BD6E21012000F0E7
:1026E00055FA4621032000F051FA0120F3E70000DB
:1026F00004000020F0B585B000242848009401941F
:1027000002940394816941F010018161816901F0B3
:1027100010010491816941F004018161816901F036
:1027200004010491816941F040018161816901F0F6
:1027300040010491816941F008018161816901F0E2
:1027400008010491816941F0200181618069144E82
:1027500000F020000490012210213046FEF754F9C9
:10276000104F012220213846FEF74EF91020012596
:10277000CDE900050220CDE9024069463046FEF76A
:1027800047F82020CDE900050320CDE90240694645
:102790003846FEF73DF805B0F0BD000000100240DD
:1027A00000100140000C01400D4810B50B490160BC
:1027B0000C49416000214FF480428160C0E903125E
:1027C00041618161C1610162FEF72AF9002803D0ED
:1027D000BDE81040FEF708B810BD000000540040EE
:1027E00078000020A08601000D4810B50B4901605B
:1027F0000C49416000214FF480428160C0E903121E
:1028000041618161C1610162FEF70AF9002803D0CC
:10281000BDE81040FDF7E8BF10BD000000580040C3
:10282000CC000020A0860100104810B50E490160C0
:102830004FF482714160002102228160C0E90312DD
:102840001202C0E905123822C2618022C0E90821C3
:1028500081620A21C162FEF7BFFE002803D0BDE8F5
:102860001040FDF7C1BF10BD003001402001002025
:1028700010B592B000240F941C2168461094FDF707
:102880008CFC202107A8FDF788FC2C482A49C0E9C8
:10289000001441F61F41C0E90241046144618461B2
:1028A000FFF7E0FB08B1FDF79FFF0F940FA9234846
:1028B0001094FFF755F808B1FDF796FF6020CDE9B9
:1028C00000040294039404940594002269461B4872
:1028D0000694FFF764FB08B1FDF786FF0422694602
:1028E0001648FFF75CFB08B1FDF77EFF082269463A
:1028F0001248FFF754FB08B1FDF776FF0C2269463A
:102900000E48FFF74CFB08B1FDF76EFF07940894E3
:1029100009944FF400500A94CDE90B4007A90748E9
:102920000E94FEF7F2FF08B1FDF75EFF0348FFF7D4
:10293000CBFA12B010BD0000002C0140780100203D
:1029400010B586B0002417480094019402940394B3
:1029500004944FF080410594016041F61F41C0E9A5
:1029600001146321C0E9031480218161FFF736F867
:1029700008B1FDF739FF4FF48050009069460948CF
:10298000FFF7ACF808B1FDF72FFF049404A9054840
:102990000594FEF7E5FF002801D0FDF725FF06B0FE
:1029A00010BD0000C001002010B58AB000240794BB
:1029B0001C2168460894FDF7F0FB22482049C0E935
:1029C000001441F61F41C0E9024104618461FFF730
:1029D00049FB08B1FDF708FF079407A919480894B7
:1029E000FEF7BEFF08B1FDF7FFFE6020CDE9000451
:1029F00002940022694613480494FFF7D0FA08B104
:102A0000FDF7F2FE042269460E48FFF7C8FA08B146
:102A1000FDF7EAFE082269460A48FFF7C0FA08B146
:102A2000FDF7E2FE0C2269460648FFF7B8FA08B146
:102A3000FDF7DAFE0348FFF747FA0AB010BD0000C1
:102A4000000400400802002010B58CB02421684624
:102A5000FDF7A3FB00241548099413490A94C0E923
:102A6000001441F61F41C0E9024104618461012064
:102A7000CDE90004CDE902040494CDE905400794B2
:102A800069460A480894FFF794F808B1FDF7ACFED0
:102A9000099409A905480A94FEF762FF002801D0AD
:102AA000FDF7A2FE0CB010BD00080040500200204F
:102AB00010B58AB0002407941C2168460894FDF7DD
:102AC0006CFB22482049C0E900144FF6FF71C0E9B1
:102AD000024104618461FFF7C5FA08B1FDF784FE85
:102AE000079407A919480894FEF73AFF08B1FDF7C3
:102AF0007BFE6020CDE90004029400226946134861
:102B00000494FFF74CFA08B1FDF76EFE0422694603
:102B10000E48FFF744FA08B1FDF766FE0822694641
:102B20000A48FFF73CFA08B1FDF75EFE0C22694641
:102B30000648FFF734FA08B1FDF756FE0348FFF7E1
:102B4000C3F90AB010BD0000000C0040980200203C
:102B50000C4810B50A4901604FF4E1314160002191
:102B600081600C22C160C0E904128161C161FFF77C
:102B700062FB002803D0BDE81040FDF735BE10BD54
:102B800000380140E0020020FEE7FEE710B50446F1
:102B90000846FDF7ACFC084A084BFDF7B0FB0022E5
:102BA000074BFDF705FBFDF7AFFC02462046BDE8ED
:102BB0001040002100F098BF9A9999999999014085
:102BC00000C0634070B504460021084600F0B0FF25
:102BD000204600F039FF40F29914224600210120DE
:102BE00000F082FF40F239152A460021032000F050
:102BF0007BFF2A460021082000F076FF22460021B4
:102C00000A2000F071FFBDE870403220FDF7EEBDF4
:102C10002DE9F84301258146ADF800501C480026F7
:102C20004670ADF800501B4C80464FF6FF7725E00C
:102C3000BDF8000010EA090F02D0C4F8845201E088
:102C4000C4F88462C4F88C52052000F0E9FCC4F892
:102C50008C62052000F0E4FCC4F88C52D4F8000229
:102C600030B198F80110BDF80020114388F8011028
:102C7000BDF8000007EA4000ADF80000BDF8000014
:102C8000FF28D5D9BDE8F843102000F0C9BC0000EA
:102C9000640000200080224210B5154C0020C4F8CA
:102CA0008802102004F5227400F0BAFC0120FFF71E
:102CB000AFFF4320FFF7ACFF0020FFF7A9FF012083
:102CC000FFF7A6FF0020FFF7A3FF0020FFF7A0FFFC
:102CD0000020FFF79DFF0020FFF79AFF0020FFF77D
:102CE00097FF01202060BDE81040102000F098BC44
:102CF0000080224210B5154C0020C4F88802102034
:102D000004F5227400F08CFC0120FFF781FF4320C2
:102D1000FFF77EFF0020FFF77BFF0020FFF778FF23
:102D20005A20FFF775FF5A20FFF772FF5A20FFF76E
:102D30006FFF5A20FFF76CFF5A20FFF769FF012051
:102D40002060BDE81040102000F06ABC00802242E4
:102D50002DE9F843DFF87C80002210214046FDF782
:102D600053FE4FF6FF7401231B4A1C491C48009474
:102D7000FEF7C4FC0A2000F053FC174D174E012348
:102D80006A1C711C16480094FEF7B8FC0A2000F07B
:102D900047FC0123AA1CB11C11480094FEF7AEFCAD
:102DA0000A2000F03DFC0327EA190123B11C0C485E
:102DB0000094FEF7A3FC0A2000F032FC7F1CFFB257
:102DC000092FF1D34046BDE8F84301221021FDF759
:102DD0001BBE0000001001406D0000200500002017
:102DE0002001002010B500F00DF800F00BF800F005
:102DF00009F8FFF751FF00F027F8BDE81040FFF792
:102E000079BF000010B50F4C0020C4F888021020D4
:102E100004F5227400F004FC0120FFF7F9FE4220C3
:102E2000FFF7F6FE0020FFF7F3FE0020FFF7F0FEAD
:102E30000020FFF7EDFE01202060BDE810401020CB
:102E400000F0EEBB0080224210B5144C0020C4F804
:102E50008802012004F52274FFF7DAFE4420FFF710
:102E6000D7FE0020FFF7D4FE0120FFF7D1FE03209C
:102E7000FFF7CEFE0020FFF7CBFE0020FFF7C8FED5
:102E80000020FFF7C5FE0020FFF7C2FE01202060F2
:102E9000BDE81040102000F0C3BB000000802242BB
:102EA000704738B50B46009204460022802100F09E
:102EB00009F8002804D0606D40F020006065032010
:102EC00038BD00002DE9F8431E4691468846044669
:102ED000089DFDF79FFD401B351AFDF79BFD07463A
:102EE00025480068C0F3CB30684338E0701C37D009
:102EF000FDF790FDC01BA84203D215B1009860B346
:102F00002CE02068416821F0E00141606068B0F584
:102F1000827F0BD1A068B0F5004F02D0B0F5806F72
:102F200004D12068016821F040010160A06AB0F579
:102F3000005F09D12068016821F400510160206818
:102F4000016841F400510160012084F85100002023
:102F500084F850000320BDE8F8830025401E00904F
:102F60002068816838EA010004D000214945BDD1BC
:102F70000020F0E70121F9E7600000207047000021
:102F800010B5074A00240128136805D0002802D193
:102F9000DC631068816310BD9C631068C16310BD61
:102FA0007801002010B5074A00240128136805D0D5
:102FB000002802D11C641068416310BD5C63106876
:102FC000016410BD7801002010B5074A00240128D3
:102FD000136805D0002802D15C631068016410BD3D
:102FE0001C641068416310BD0802002010B5074A38
:102FF00000240128136805D0002802D19C631068C2
:10300000C16310BDDC631068816310BD080200203D
:103010004FF0E0210428086903D020F00400086183
:10302000704740F00400FAE7FDF7C2BF30B58FB03B
:1030300028216846FDF7B1F814210AA8FDF7ADF87C
:1030400001210804CDE90010002402940225049116
:10305000CDE907504FF4E01009906846FEF72CF9CF
:1030600008B172B6FEE70F20CDE90A054FF4806083
:10307000CDE90C4002210AA80E94FEF731F8002891
:1030800001D072B6FEE70FB030BD70470148FEF7C1
:1030900067BE0000C00100200148FEF761BE0000CD
:1030A00050020020F0B502681C4B1D4D1D4E1E4FF6
:1030B0001E4C4FF0804C984209D0A04207D060458A
:1030C00005D0A84203D0B04201D0B84204D122F0CA
:1030D000700E4A6842EA0E02984209D0A04207D018
:1030E000604505D0A84203D0B04201D0B84203D118
:1030F00022F44075CA682A434D6922F080022A43AF
:1031000002608A68C2620A688262984201D0A04264
:1031100001D10969016301214161F0BD002C014029
:103120000004004000080040000C00400034014052
:1031300010B501F01F030121046A99408C43046219
:10314000016A9A401143016210BD10B5846842EAD9
:10315000032224F47F440A432243826010BD826824
:1031600022F070020A4342F00701816070470000BC
:10317000F0B5026A22F001020262036A42688469C1
:10318000124E24F073050C682C4323F002058B6863
:103190002B430D4DA84201D0B04205D123F00807C2
:1031A000CB683B4323F00403A84201D0B04205D1D1
:1031B0004D6922F4407215438A692A434260846152
:1031C000496841630362F0BD002C014000340140B6
:1031D000F0B5026A22F010020262026A4368846952
:1031E0000D6824F4E64444EA05248D6822F02002A8
:1031F00042EA05120F4D104EA84201D0B04206D14E
:10320000CF6822F0800242EA071222F04002A84270
:1032100001D0B04207D14D6923F4406343EA8503EE
:103220008D6943EA85034360846149688163026272
:10323000F0BD0000002C014000340140F0B5026AEE
:1032400022F480720262026A4368C46922F4007246
:1032500024F073050C68124E2C438D6842EA052257
:103260000E4DA84201D0B04206D1CF6822F40062D0
:1032700042EA072222F48062A84201D0B04207D17C
:103280004D6923F4405343EA05138D6943EA05135E
:103290004360C4614968C1630262F0BD002C014013
:1032A0000034014030B5026A22F480520262046A9E
:1032B0004268C3690D6823F4E64343EA05238D6839
:1032C00024F4005444EA0534084DA84202D0084DC5
:1032D000A84204D14D6922F4804242EA851242603C
:1032E000C36149680164046230BD0000002C0140E4
:1032F0000034014010B5036A046A24F0010404623A
:10330000846924F0F00444EA021423F00A020A4318
:103310008461026210BD10B5036A23F010030362DA
:103320008369046A23F4704343EA023224F0A00361
:1033300043EA01118261016210BD000070B50446CC
:1033400000680169E26821F440511143016121697B
:10335000A0680843616908432168CA6841F20C63A8
:103360009A430243CA6020684169A26921F440710E
:10337000114341611E492068884202D1FDF756FF82
:1033800001E0FDF743FF00EBC00101EB00126068B4
:1033900064218000B2FBF0F3B3FBF1F36FF0180689
:1033A0007343B2FBF0F5B2FBF0F605EB8305322375
:1033B00003EB0515B5FBF1F5B6FBF1F605F0F005ED
:1033C00005EB0615B2FBF0F6B2FBF0F0B0FBF1F046
:1033D0006FF01802504306EB800003EB0010B0FBC7
:1033E000F1F0216800F00F002844886070BD0000F3
:1033F00000380140FEE700000FB4084B10B504A9E7
:1034000002AA039800F02CF8044602A9002000F05C
:10341000D1F8204610BC5DF814FB0000B53500085B
:103420000907090E002804DB00F1E02080F80014F1
:10343000704700F00F0000F1E02080F8141D704785
:1034400002E008C8121F08C1002AFAD1704770476D
:10345000002001E001C1121F002AFBD170470000CB
:103460002DE9FF4F89B09B460446002506E025283C
:103470000BD05A460B999047641C6D1C207800288D
:10348000F5D10DB02846BDE8F08F0027B8460122DF
:10349000474900E0074314F8013F203B02FA03F0DC
:1034A0000842F7D120782E2819D114F8010F47F0DF
:1034B00004072A280ED06FF02F022078A0F13001E7
:1034C00009290CD808EB880102EB410100EB010847
:1034D000641CF2E70A98641C50F8048B0A90207868
:1034E0000028CED0642808D0692806D075281ED0C0
:1034F0005A460B9990476D1C58E00A994FF00A09FB
:1035000001C90A91002802DA40422D2102E0390562
:1035100004D52B218DF82010012103E0F90704D0F8
:103520002021F7E78A4608AE0DE00021FAE70A9964
:103530004FF00A0901C90A91F7E74946FDF72CF84F
:10354000303106F8011D0028F7D1ADEB060000F17F
:103550002009780701D44FF00108C84502DDA8EB27
:10356000090000E000208046002706E008A85A462F
:10357000C05D0B9990476D1C7F1C5745F6DB04E03E
:1035800030205A460B9990476D1CB8F10001A8F104
:103590000108F5DC05E016F8010B5A460B99904737
:1035A0006D1CB9F10001A9F10109F4DC641C65E7A7
:1035B000092801000A68531C0B6010707047000056
:1035C00010B504466FF00400FFF722FD0648E1083D
:1035D00001EB41020170C2EBC1114FF6FF7202EA2A
:1035E000C101418010BD00000000002070B54FF403
:1035F0000775B0FBF5F1CCB2B0FBF5F105FB110698
:1036000004E0284600F026F8641EE4B2002CF8D14D
:10361000002E04D03046BDE8704000F01BB870BDED
:103620000B49097848434FF0E021486100228A6144
:10363000086940F0010008610869C30701D0C003B0
:10364000FAD5086920F0010008618A61704700001E
:10365000000000200B49498848434FF0E0214861B1
:1036600000228A61086940F0010008610869C30707
:1036700001D0C003FAD5086920F0010008618A6111
:1036800070470000000000202DE9F041C1F30A520C
:10369000A2F2FF362F4A304B0D460446142E2FDA85
:1036A000002E12DAFCF784FD00221346FDF740F8E5
:1036B0004CD2002DA4BF0024254647DA25F0004057
:1036C000204318BF254D41D018E0DFF894C02CFAF4
:1036D00006F705EA070C5CEA040C08BFBDE8F081B8
:1036E000FCF766FD00221346FDF722F82ED2002DCE
:1036F00003DA4FF48010F0400544BD43002425E078
:10370000332EC8BFBDE8F081A6F1140C4FF0FF378F
:1037100027FA0CF73C4208BFBDE8F081FCF7ECFD4E
:1037200000221346FDF704F810D2002D0DDA142EF6
:1037300008BF6D1C09D0C6F13400012101FA00F068
:103740002044A04238BF6D1C0446BC432946204695
:10375000BDE8F0819C7500883CE4377E0000F0BF36
:10376000FFFF0F001FB5FDF72BFCFFF75FFCFEF717
:10377000C1FFFFF77DF8FFF7E3F8FFF765F9FFF703
:10378000E7F9FFF751F8FFF70FF9FFF72DF8FFF70B
:103790000BF8FFF78DF95A219748FFF713FA00212C
:1037A0009648FEF7BDFC04219448FEF7B9FC0821B9
:1037B0009248FEF7B5FC0C219048FEF7B1FC0021C1
:1037C0008F48FEF7ADFC04218D48FEF7A9FC0821C7
:1037D0008B48FEF7A5FC0C218948FEF7A1FC0021CF
:1037E0008848FEF775FA04218648FEF771FA864884
:1037F000FEF73EF9A820FFF7E3FEFFF7F3FA4FF4D8
:10380000FA70FFF7F3FE50210820FFF7BFF964219B
:103810000A20FFF7BBF97D4E7D4C4FF47A774FF0CD
:1038200001090025F078FCF7CBFF024679A102A838
:10383000FFF7E2FD3079FCF7C3FF024675A1684649
:10384000FFF7DAFD9DF80E00302803D1606808B953
:10385000C4F804909DF80600302808D16069401C27
:103860006061B84203DDE068FEF728FF65619DF8FE
:103870000700302808D12069401C2061B84203DDD0
:10388000A068FCF77FFF256160680128CAD17078C5
:1038900073280AD04128C5D16562A562E562256317
:1038A0006563A563E5632564BCE76562A562E562BF
:1038B000C4E90C59C4F83890C4F83C90C4F840905E
:1038C000307ACC46782815D2C0F17F01CA1701EBB7
:1038D0005261C91101EBC10202EB01114FF4E15237
:1038E00002EBC102626241F6F42202EBC101A16265
:1038F000E1622163A0F18801772914D80931CA1740
:1039000001EB5261C91101EBC10202EB011241F25C
:103910007C5101EB42116162A162E162C4E90C15C4
:10392000A563E5632564717978290FD2C1F17F021F
:103930007F2392FBF3F24FF4AF535A436262A262C9
:10394000E262C4E90C2CC4E90EC52564A1F1880229
:10395000772A10D80932D31702EB5362D2114FF4F1
:10396000AF535A436262A262E262C4E90C25C4E921
:103970000E5CC4F840C09DF80480B8F1300F10D13F
:1039800041F6641262624FF4C852A26241F65832A4
:10399000E26204F1300341F64C5283E82410C4E99A
:1039A0000FC59DF80530302B09D141F6C81262626F
:1039B000A262E2622263C4E90DC5C4E90F5C9DF80E
:1039C0000D20302A07D16562A562E5622563656333
:1039D000A563E563256474381328BFF465AF7329C4
:1039E0007FF662AF8729F8D2B8F1310F7FF45CAF70
:1039F000312BFBD150E7000000007042780100201D
:103A00000802002050020020C00100206D000020AC
:103A100004000020256400003EB542F210748DF8C9
:103A20000400012301AA802106480094FDF7DEF975
:103A3000012302AA802103480094FDF7B5F89DF800
:103A400008003EBD7800002070B5FCF776FD214AE5
:103A5000214BFCF754FCFCF783FD06466FF00B028C
:103A600000201E49FCF72CFD04460D463046FCF7AD
:103A700064FD02460B4620462946FCF7B2FC0022B4
:103A8000174BFCF736FC0022164BFCF791FBFFF7B7
:103A9000FBFDFCF739FDC5B20020FFF7BDFF044672
:103AA00000F07F0040F01001002000F041F82946AE
:103AB000FE2000F03DF82146002000F039F80220F9
:103AC000FCF794FE44F0A101BDE87040002000F036
:103AD0002FB8000048E17A14AE47ED3F84D7774114
:103AE0000000F03F0000E03F70B5044606200E469F
:103AF00000EB84001546C9B2C0B200F019F80720E7
:103B000000EB8400C0B2C6F3072100F011F80820D2
:103B100000EB8400E9B2C0B200F00AF8092000EB23
:103B20008400C5F30721BDE87040C0B2AFF3008048
:103B30001CB502238DF8040042F210708DF80510B8
:103B4000009001AA80210248FDF750F91CBD000039
:103B500078000020000000000000000001020304C3
:103B60000607080900000000010203048C3B00085E
:103B7000000000206400000040340008F03B000812
:103B800064000020C406000050340008000000005B
:103B900000014200000000000000000000000000E2
:103BA00000000000000000000000803F0000000056
:103BB0000000000000000000000000000000000005
:103BC00000000000000000000000000000000000F5
:103BD00000000000000000000000000000000000E5
:103BE0000100000010000000000000000024F400AC
:0400000508000131BD
:00000001FF
